{"abi":[{"type":"constructor","inputs":[],"stateMutability":"nonpayable"},{"type":"function","name":"approve","inputs":[{"name":"to","type":"address","internalType":"address"},{"name":"tokenId","type":"uint256","internalType":"uint256"}],"outputs":[],"stateMutability":"nonpayable"},{"type":"function","name":"balanceOf","inputs":[{"name":"owner","type":"address","internalType":"address"}],"outputs":[{"name":"","type":"uint256","internalType":"uint256"}],"stateMutability":"view"},{"type":"function","name":"batchMint","inputs":[{"name":"_to","type":"address","internalType":"address"},{"name":"uris","type":"string[]","internalType":"string[]"}],"outputs":[],"stateMutability":"nonpayable"},{"type":"function","name":"getApproved","inputs":[{"name":"tokenId","type":"uint256","internalType":"uint256"}],"outputs":[{"name":"","type":"address","internalType":"address"}],"stateMutability":"view"},{"type":"function","name":"isApprovedForAll","inputs":[{"name":"owner","type":"address","internalType":"address"},{"name":"operator","type":"address","internalType":"address"}],"outputs":[{"name":"","type":"bool","internalType":"bool"}],"stateMutability":"view"},{"type":"function","name":"name","inputs":[],"outputs":[{"name":"","type":"string","internalType":"string"}],"stateMutability":"view"},{"type":"function","name":"owner","inputs":[],"outputs":[{"name":"","type":"address","internalType":"address"}],"stateMutability":"view"},{"type":"function","name":"ownerOf","inputs":[{"name":"tokenId","type":"uint256","internalType":"uint256"}],"outputs":[{"name":"","type":"address","internalType":"address"}],"stateMutability":"view"},{"type":"function","name":"promptDescription","inputs":[],"outputs":[{"name":"","type":"string[]","internalType":"string[]"}],"stateMutability":"view"},{"type":"function","name":"prompts","inputs":[{"name":"","type":"uint256","internalType":"uint256"}],"outputs":[{"name":"","type":"string","internalType":"string"}],"stateMutability":"view"},{"type":"function","name":"renounceOwnership","inputs":[],"outputs":[],"stateMutability":"nonpayable"},{"type":"function","name":"safeTransferFrom","inputs":[{"name":"from","type":"address","internalType":"address"},{"name":"to","type":"address","internalType":"address"},{"name":"tokenId","type":"uint256","internalType":"uint256"}],"outputs":[],"stateMutability":"nonpayable"},{"type":"function","name":"safeTransferFrom","inputs":[{"name":"from","type":"address","internalType":"address"},{"name":"to","type":"address","internalType":"address"},{"name":"tokenId","type":"uint256","internalType":"uint256"},{"name":"data","type":"bytes","internalType":"bytes"}],"outputs":[],"stateMutability":"nonpayable"},{"type":"function","name":"setApprovalForAll","inputs":[{"name":"operator","type":"address","internalType":"address"},{"name":"approved","type":"bool","internalType":"bool"}],"outputs":[],"stateMutability":"nonpayable"},{"type":"function","name":"setPrompt","inputs":[{"name":"_prompts","type":"string[]","internalType":"string[]"}],"outputs":[],"stateMutability":"nonpayable"},{"type":"function","name":"supportsInterface","inputs":[{"name":"interfaceId","type":"bytes4","internalType":"bytes4"}],"outputs":[{"name":"","type":"bool","internalType":"bool"}],"stateMutability":"view"},{"type":"function","name":"symbol","inputs":[],"outputs":[{"name":"","type":"string","internalType":"string"}],"stateMutability":"view"},{"type":"function","name":"tokenByIndex","inputs":[{"name":"index","type":"uint256","internalType":"uint256"}],"outputs":[{"name":"","type":"uint256","internalType":"uint256"}],"stateMutability":"view"},{"type":"function","name":"tokenOfOwnerByIndex","inputs":[{"name":"owner","type":"address","internalType":"address"},{"name":"index","type":"uint256","internalType":"uint256"}],"outputs":[{"name":"","type":"uint256","internalType":"uint256"}],"stateMutability":"view"},{"type":"function","name":"tokenURI","inputs":[{"name":"tokenId","type":"uint256","internalType":"uint256"}],"outputs":[{"name":"","type":"string","internalType":"string"}],"stateMutability":"view"},{"type":"function","name":"totalSupply","inputs":[],"outputs":[{"name":"","type":"uint256","internalType":"uint256"}],"stateMutability":"view"},{"type":"function","name":"transferFrom","inputs":[{"name":"from","type":"address","internalType":"address"},{"name":"to","type":"address","internalType":"address"},{"name":"tokenId","type":"uint256","internalType":"uint256"}],"outputs":[],"stateMutability":"nonpayable"},{"type":"function","name":"transferOwnership","inputs":[{"name":"newOwner","type":"address","internalType":"address"}],"outputs":[],"stateMutability":"nonpayable"},{"type":"event","name":"Approval","inputs":[{"name":"owner","type":"address","indexed":true,"internalType":"address"},{"name":"approved","type":"address","indexed":true,"internalType":"address"},{"name":"tokenId","type":"uint256","indexed":true,"internalType":"uint256"}],"anonymous":false},{"type":"event","name":"ApprovalForAll","inputs":[{"name":"owner","type":"address","indexed":true,"internalType":"address"},{"name":"operator","type":"address","indexed":true,"internalType":"address"},{"name":"approved","type":"bool","indexed":false,"internalType":"bool"}],"anonymous":false},{"type":"event","name":"BatchMetadataUpdate","inputs":[{"name":"_fromTokenId","type":"uint256","indexed":false,"internalType":"uint256"},{"name":"_toTokenId","type":"uint256","indexed":false,"internalType":"uint256"}],"anonymous":false},{"type":"event","name":"MetadataUpdate","inputs":[{"name":"_tokenId","type":"uint256","indexed":false,"internalType":"uint256"}],"anonymous":false},{"type":"event","name":"OwnershipTransferred","inputs":[{"name":"previousOwner","type":"address","indexed":true,"internalType":"address"},{"name":"newOwner","type":"address","indexed":true,"internalType":"address"}],"anonymous":false},{"type":"event","name":"Transfer","inputs":[{"name":"from","type":"address","indexed":true,"internalType":"address"},{"name":"to","type":"address","indexed":true,"internalType":"address"},{"name":"tokenId","type":"uint256","indexed":true,"internalType":"uint256"}],"anonymous":false},{"type":"error","name":"ERC721EnumerableForbiddenBatchMint","inputs":[]},{"type":"error","name":"ERC721IncorrectOwner","inputs":[{"name":"sender","type":"address","internalType":"address"},{"name":"tokenId","type":"uint256","internalType":"uint256"},{"name":"owner","type":"address","internalType":"address"}]},{"type":"error","name":"ERC721InsufficientApproval","inputs":[{"name":"operator","type":"address","internalType":"address"},{"name":"tokenId","type":"uint256","internalType":"uint256"}]},{"type":"error","name":"ERC721InvalidApprover","inputs":[{"name":"approver","type":"address","internalType":"address"}]},{"type":"error","name":"ERC721InvalidOperator","inputs":[{"name":"operator","type":"address","internalType":"address"}]},{"type":"error","name":"ERC721InvalidOwner","inputs":[{"name":"owner","type":"address","internalType":"address"}]},{"type":"error","name":"ERC721InvalidReceiver","inputs":[{"name":"receiver","type":"address","internalType":"address"}]},{"type":"error","name":"ERC721InvalidSender","inputs":[{"name":"sender","type":"address","internalType":"address"}]},{"type":"error","name":"ERC721NonexistentToken","inputs":[{"name":"tokenId","type":"uint256","internalType":"uint256"}]},{"type":"error","name":"ERC721OutOfBoundsIndex","inputs":[{"name":"owner","type":"address","internalType":"address"},{"name":"index","type":"uint256","internalType":"uint256"}]},{"type":"error","name":"OwnableInvalidOwner","inputs":[{"name":"owner","type":"address","internalType":"address"}]},{"type":"error","name":"OwnableUnauthorizedAccount","inputs":[{"name":"account","type":"address","internalType":"address"}]}],"bytecode":{"object":"0x60806040526000600d553480156200001657600080fd5b50336040518060400160405280600a81526020016952616e646f6d6e65737360b01b81525060405180604001604052806003815260200162524e5360e81b8152508160009081620000689190620001b4565b506001620000778282620001b4565b5050506001600160a01b038116620000a957604051631e4fbdf760e01b81526000600482015260240160405180910390fd5b620000b481620000bb565b5062000280565b600680546001600160a01b038381166001600160a01b0319831681179093556040519116919082907f8be0079c531659141344cd1fd0a4f28419497f9722a3daafe3b4186f6b6457e090600090a35050565b634e487b7160e01b600052604160045260246000fd5b600181811c908216806200013857607f821691505b6020821081036200015957634e487b7160e01b600052602260045260246000fd5b50919050565b601f821115620001af576000816000526020600020601f850160051c810160208610156200018a5750805b601f850160051c820191505b81811015620001ab5782815560010162000196565b5050505b505050565b81516001600160401b03811115620001d057620001d06200010d565b620001e881620001e1845462000123565b846200015f565b602080601f831160018114620002205760008415620002075750858301515b600019600386901b1c1916600185901b178555620001ab565b600085815260208120601f198616915b82811015620002515788860151825594840194600190910190840162000230565b5085821015620002705787850151600019600388901b60f8161c191681555b5050505050600190811b01905550565b611bdf80620002906000396000f3fe608060405234801561001057600080fd5b506004361061014d5760003560e01c806370a08231116100c3578063b88d4fde1161007c578063b88d4fde146102af578063c87b56dd146102c2578063d4cf9af7146102d5578063e985e9c5146102e8578063f2f18baa146102fb578063f2fde38b1461030e57600080fd5b806370a0823114610253578063715018a6146102665780638da5cb5b1461026e578063953637311461027f57806395d89b4114610294578063a22cb4651461029c57600080fd5b806321173f3c1161011557806321173f3c146101e157806323b872dd146101f45780632f745c591461020757806342842e0e1461021a5780634f6ccce71461022d5780636352211e1461024057600080fd5b806301ffc9a71461015257806306fdde031461017a578063081812fc1461018f578063095ea7b3146101ba57806318160ddd146101cf575b600080fd5b6101656101603660046114fa565b610321565b60405190151581526020015b60405180910390f35b610182610332565b6040516101719190611567565b6101a261019d36600461157a565b6103c4565b6040516001600160a01b039091168152602001610171565b6101cd6101c83660046115af565b6103ed565b005b600a545b604051908152602001610171565b6101cd6101ef36600461172c565b6103fc565b6101cd610202366004611761565b61047e565b6101d36102153660046115af565b61050e565b6101cd610228366004611761565b610573565b6101d361023b36600461157a565b61058e565b6101a261024e36600461157a565b6105e7565b6101d361026136600461179d565b6105f2565b6101cd61063a565b6006546001600160a01b03166101a2565b61028761064e565b60405161017191906117b8565b610182610727565b6101cd6102aa36600461181c565b610736565b6101cd6102bd366004611858565b610741565b6101826102d036600461157a565b610758565b6101826102e336600461157a565b610763565b6101656102f63660046118d4565b61080f565b6101cd610309366004611907565b61083d565b6101cd61031c36600461179d565b6108a9565b600061032c826108e7565b92915050565b60606000805461034190611955565b80601f016020809104026020016040519081016040528092919081815260200182805461036d90611955565b80156103ba5780601f1061038f576101008083540402835291602001916103ba565b820191906000526020600020905b81548152906001019060200180831161039d57829003601f168201915b5050505050905090565b60006103cf8261090c565b506000828152600460205260409020546001600160a01b031661032c565b6103f8828233610945565b5050565b610404610952565b60006001825161041491906119a5565b905060005b81811161047957600c8361042d83856119a5565b8151811061043d5761043d6119b8565b602090810291909101810151825460018101845560009384529190922001906104669082611a1e565b508061047181611ade565b915050610419565b505050565b6001600160a01b0382166104ad57604051633250574960e11b8152600060048201526024015b60405180910390fd5b60006104ba83833361097f565b9050836001600160a01b0316816001600160a01b031614610508576040516364283d7b60e01b81526001600160a01b03808616600483015260248201849052821660448201526064016104a4565b50505050565b6000610519836105f2565b821061054a5760405163295f44f760e21b81526001600160a01b0384166004820152602481018390526044016104a4565b506001600160a01b03919091166000908152600860209081526040808320938352929052205490565b61047983838360405180602001604052806000815250610741565b6000610599600a5490565b82106105c25760405163295f44f760e21b815260006004820152602481018390526044016104a4565b600a82815481106105d5576105d56119b8565b90600052602060002001549050919050565b600061032c8261090c565b60006001600160a01b03821661061e576040516322718ad960e21b8152600060048201526024016104a4565b506001600160a01b031660009081526003602052604090205490565b610642610952565b61064c6000610994565b565b6060600c805480602002602001604051908101604052809291908181526020016000905b8282101561071e57838290600052602060002001805461069190611955565b80601f01602080910402602001604051908101604052809291908181526020018280546106bd90611955565b801561070a5780601f106106df5761010080835404028352916020019161070a565b820191906000526020600020905b8154815290600101906020018083116106ed57829003601f168201915b505050505081526020019060010190610672565b50505050905090565b60606001805461034190611955565b6103f83383836109e6565b61074c84848461047e565b61050884848484610a85565b606061032c82610bae565b600c818154811061077357600080fd5b90600052602060002001600091509050805461078e90611955565b80601f01602080910402602001604051908101604052809291908181526020018280546107ba90611955565b80156108075780601f106107dc57610100808354040283529160200191610807565b820191906000526020600020905b8154815290600101906020018083116107ea57829003601f168201915b505050505081565b6001600160a01b03918216600090815260056020908152604080832093909416825291909152205460ff1690565b610845610952565b805160005b81811015610508576000838281518110610866576108666119b8565b6020026020010151905061087c85600d54610cb7565b610888600d5482610d1c565b6001600d600082825461089b9190611af7565b90915550505060010161084a565b6108b1610952565b6001600160a01b0381166108db57604051631e4fbdf760e01b8152600060048201526024016104a4565b6108e481610994565b50565b60006001600160e01b0319821663780e9d6360e01b148061032c575061032c82610d6c565b6000818152600260205260408120546001600160a01b03168061032c57604051637e27328960e01b8152600481018490526024016104a4565b6104798383836001610d91565b6006546001600160a01b0316331461064c5760405163118cdaa760e01b81523360048201526024016104a4565b600061098c848484610e97565b949350505050565b600680546001600160a01b038381166001600160a01b0319831681179093556040519116919082907f8be0079c531659141344cd1fd0a4f28419497f9722a3daafe3b4186f6b6457e090600090a35050565b6001600160a01b038216610a1857604051630b61174360e31b81526001600160a01b03831660048201526024016104a4565b6001600160a01b03838116600081815260056020908152604080832094871680845294825291829020805460ff191686151590811790915591519182527f17307eab39ab6107e8899845ad3d59bd9653f200f220920489ca2b5937696c31910160405180910390a3505050565b6001600160a01b0383163b1561050857604051630a85bd0160e11b81526001600160a01b0384169063150b7a0290610ac7903390889087908790600401611b0a565b6020604051808303816000875af1925050508015610b02575060408051601f3d908101601f19168201909252610aff91810190611b47565b60015b610b6b573d808015610b30576040519150601f19603f3d011682016040523d82523d6000602084013e610b35565b606091505b508051600003610b6357604051633250574960e11b81526001600160a01b03851660048201526024016104a4565b805181602001fd5b6001600160e01b03198116630a85bd0160e11b14610ba757604051633250574960e11b81526001600160a01b03851660048201526024016104a4565b5050505050565b6060610bb98261090c565b5060008281526007602052604081208054610bd390611955565b80601f0160208091040260200160405190810160405280929190818152602001828054610bff90611955565b8015610c4c5780601f10610c2157610100808354040283529160200191610c4c565b820191906000526020600020905b815481529060010190602001808311610c2f57829003601f168201915b505050505090506000610c6a60408051602081019091526000815290565b90508051600003610c7c575092915050565b815115610cae578082604051602001610c96929190611b64565b60405160208183030381529060405292505050919050565b61098c84610f64565b6001600160a01b038216610ce157604051633250574960e11b8152600060048201526024016104a4565b6000610cef8383600061097f565b90506001600160a01b03811615610479576040516339e3563760e11b8152600060048201526024016104a4565b6000828152600760205260409020610d348282611a1e565b506040518281527ff8e1a15aba9398e019f0b49df1a4fde98ee17ae345cb5f6b5e2c27f5033e8ce79060200160405180910390a15050565b60006001600160e01b03198216632483248360e11b148061032c575061032c82610fd9565b8080610da557506001600160a01b03821615155b15610e67576000610db58461090c565b90506001600160a01b03831615801590610de15750826001600160a01b0316816001600160a01b031614155b8015610df45750610df2818461080f565b155b15610e1d5760405163a9fbf51f60e01b81526001600160a01b03841660048201526024016104a4565b8115610e655783856001600160a01b0316826001600160a01b03167f8c5be1e5ebec7d5bd14f71427d1e84f3dd0314c0f7b2291e5b200ac8c7c3b92560405160405180910390a45b505b5050600090815260046020526040902080546001600160a01b0319166001600160a01b0392909216919091179055565b600080610ea5858585611029565b90506001600160a01b038116610f0257610efd84600a80546000838152600b60205260408120829055600182018355919091527fc65a7bb8d6351c1cf70c95a316cc6a92839c986682d98bc35f958f4883f9d2a80155565b610f25565b846001600160a01b0316816001600160a01b031614610f2557610f258185611122565b6001600160a01b038516610f4157610f3c846111b3565b61098c565b846001600160a01b0316816001600160a01b03161461098c5761098c8585611262565b6060610f6f8261090c565b506000610f8760408051602081019091526000815290565b90506000815111610fa75760405180602001604052806000815250610fd2565b80610fb1846112b2565b604051602001610fc2929190611b64565b6040516020818303038152906040525b9392505050565b60006001600160e01b031982166380ac58cd60e01b148061100a57506001600160e01b03198216635b5e139f60e01b145b8061032c57506301ffc9a760e01b6001600160e01b031983161461032c565b6000828152600260205260408120546001600160a01b039081169083161561105657611056818486611345565b6001600160a01b0381161561109457611073600085600080610d91565b6001600160a01b038116600090815260036020526040902080546000190190555b6001600160a01b038516156110c3576001600160a01b0385166000908152600360205260409020805460010190555b60008481526002602052604080822080546001600160a01b0319166001600160a01b0389811691821790925591518793918516917fddf252ad1be2c89b69c2b068fc378daa952ba7f163c4a11628f55a4df523b3ef91a4949350505050565b600061112d836105f2565b600083815260096020526040902054909150808214611180576001600160a01b03841660009081526008602090815260408083208584528252808320548484528184208190558352600990915290208190555b5060009182526009602090815260408084208490556001600160a01b039094168352600881528383209183525290812055565b600a546000906111c5906001906119a5565b6000838152600b6020526040812054600a80549394509092849081106111ed576111ed6119b8565b9060005260206000200154905080600a838154811061120e5761120e6119b8565b6000918252602080832090910192909255828152600b9091526040808220849055858252812055600a80548061124657611246611b93565b6001900381819060005260206000200160009055905550505050565b6000600161126f846105f2565b61127991906119a5565b6001600160a01b039093166000908152600860209081526040808320868452825280832085905593825260099052919091209190915550565b606060006112bf836113a9565b600101905060008167ffffffffffffffff8111156112df576112df6115d9565b6040519080825280601f01601f191660200182016040528015611309576020820181803683370190505b5090508181016020015b600019016f181899199a1a9b1b9c1cb0b131b232b360811b600a86061a8153600a850494508461131357509392505050565b611350838383611481565b610479576001600160a01b03831661137e57604051637e27328960e01b8152600481018290526024016104a4565b60405163177e802f60e01b81526001600160a01b0383166004820152602481018290526044016104a4565b60008072184f03e93ff9f4daa797ed6e38ed64bf6a1f0160401b83106113e85772184f03e93ff9f4daa797ed6e38ed64bf6a1f0160401b830492506040015b6d04ee2d6d415b85acef81000000008310611414576d04ee2d6d415b85acef8100000000830492506020015b662386f26fc10000831061143257662386f26fc10000830492506010015b6305f5e100831061144a576305f5e100830492506008015b612710831061145e57612710830492506004015b60648310611470576064830492506002015b600a831061032c5760010192915050565b60006001600160a01b0383161580159061098c5750826001600160a01b0316846001600160a01b031614806114bb57506114bb848461080f565b8061098c5750506000908152600460205260409020546001600160a01b03908116911614919050565b6001600160e01b0319811681146108e457600080fd5b60006020828403121561150c57600080fd5b8135610fd2816114e4565b60005b8381101561153257818101518382015260200161151a565b50506000910152565b60008151808452611553816020860160208601611517565b601f01601f19169290920160200192915050565b602081526000610fd2602083018461153b565b60006020828403121561158c57600080fd5b5035919050565b80356001600160a01b03811681146115aa57600080fd5b919050565b600080604083850312156115c257600080fd5b6115cb83611593565b946020939093013593505050565b634e487b7160e01b600052604160045260246000fd5b604051601f8201601f1916810167ffffffffffffffff81118282101715611618576116186115d9565b604052919050565b600067ffffffffffffffff83111561163a5761163a6115d9565b61164d601f8401601f19166020016115ef565b905082815283838301111561166157600080fd5b828260208301376000602084830101529392505050565b600082601f83011261168957600080fd5b8135602067ffffffffffffffff808311156116a6576116a66115d9565b8260051b6116b58382016115ef565b93845285810183019383810190888611156116cf57600080fd5b84880192505b85831015611720578235848111156116ed5760008081fd5b8801603f81018a136116ff5760008081fd5b6117108a8783013560408401611620565b83525091840191908401906116d5565b98975050505050505050565b60006020828403121561173e57600080fd5b813567ffffffffffffffff81111561175557600080fd5b61098c84828501611678565b60008060006060848603121561177657600080fd5b61177f84611593565b925061178d60208501611593565b9150604084013590509250925092565b6000602082840312156117af57600080fd5b610fd282611593565b600060208083016020845280855180835260408601915060408160051b87010192506020870160005b8281101561180f57603f198886030184526117fd85835161153b565b945092850192908501906001016117e1565b5092979650505050505050565b6000806040838503121561182f57600080fd5b61183883611593565b91506020830135801515811461184d57600080fd5b809150509250929050565b6000806000806080858703121561186e57600080fd5b61187785611593565b935061188560208601611593565b925060408501359150606085013567ffffffffffffffff8111156118a857600080fd5b8501601f810187136118b957600080fd5b6118c887823560208401611620565b91505092959194509250565b600080604083850312156118e757600080fd5b6118f083611593565b91506118fe60208401611593565b90509250929050565b6000806040838503121561191a57600080fd5b61192383611593565b9150602083013567ffffffffffffffff81111561193f57600080fd5b61194b85828601611678565b9150509250929050565b600181811c9082168061196957607f821691505b60208210810361198957634e487b7160e01b600052602260045260246000fd5b50919050565b634e487b7160e01b600052601160045260246000fd5b8181038181111561032c5761032c61198f565b634e487b7160e01b600052603260045260246000fd5b601f821115610479576000816000526020600020601f850160051c810160208610156119f75750805b601f850160051c820191505b81811015611a1657828155600101611a03565b505050505050565b815167ffffffffffffffff811115611a3857611a386115d9565b611a4c81611a468454611955565b846119ce565b602080601f831160018114611a815760008415611a695750858301515b600019600386901b1c1916600185901b178555611a16565b600085815260208120601f198616915b82811015611ab057888601518255948401946001909101908401611a91565b5085821015611ace5787850151600019600388901b60f8161c191681555b5050505050600190811b01905550565b600060018201611af057611af061198f565b5060010190565b8082018082111561032c5761032c61198f565b6001600160a01b0385811682528416602082015260408101839052608060608201819052600090611b3d9083018461153b565b9695505050505050565b600060208284031215611b5957600080fd5b8151610fd2816114e4565b60008351611b76818460208801611517565b835190830190611b8a818360208801611517565b01949350505050565b634e487b7160e01b600052603160045260246000fdfea264697066735822122025f3501035cad1559289e7e8255f7d2936201aa71e64254fcd2ad6e204174e1864736f6c63430008160033","linkReferences":{}},"methodIdentifiers":{"approve(address,uint256)":"095ea7b3","balanceOf(address)":"70a08231","batchMint(address,string[])":"f2f18baa","getApproved(uint256)":"081812fc","isApprovedForAll(address,address)":"e985e9c5","name()":"06fdde03","owner()":"8da5cb5b","ownerOf(uint256)":"6352211e","promptDescription()":"95363731","prompts(uint256)":"d4cf9af7","renounceOwnership()":"715018a6","safeTransferFrom(address,address,uint256)":"42842e0e","safeTransferFrom(address,address,uint256,bytes)":"b88d4fde","setApprovalForAll(address,bool)":"a22cb465","setPrompt(string[])":"21173f3c","supportsInterface(bytes4)":"01ffc9a7","symbol()":"95d89b41","tokenByIndex(uint256)":"4f6ccce7","tokenOfOwnerByIndex(address,uint256)":"2f745c59","tokenURI(uint256)":"c87b56dd","totalSupply()":"18160ddd","transferFrom(address,address,uint256)":"23b872dd","transferOwnership(address)":"f2fde38b"},"id":40}